{
  "contractName": "priceBasedNft",
  "abi": [
    {
      "inputs": [
        {
          "internalType": "string",
          "name": "_name",
          "type": "string"
        },
        {
          "internalType": "string",
          "name": "_symbol",
          "type": "string"
        }
      ],
      "stateMutability": "nonpayable",
      "type": "constructor"
    },
    {
      "anonymous": false,
      "inputs": [
        {
          "indexed": true,
          "internalType": "address",
          "name": "owner",
          "type": "address"
        },
        {
          "indexed": true,
          "internalType": "address",
          "name": "approved",
          "type": "address"
        },
        {
          "indexed": true,
          "internalType": "uint256",
          "name": "tokenId",
          "type": "uint256"
        }
      ],
      "name": "Approval",
      "type": "event"
    },
    {
      "anonymous": false,
      "inputs": [
        {
          "indexed": true,
          "internalType": "address",
          "name": "owner",
          "type": "address"
        },
        {
          "indexed": true,
          "internalType": "address",
          "name": "operator",
          "type": "address"
        },
        {
          "indexed": false,
          "internalType": "bool",
          "name": "approved",
          "type": "bool"
        }
      ],
      "name": "ApprovalForAll",
      "type": "event"
    },
    {
      "anonymous": false,
      "inputs": [
        {
          "indexed": false,
          "internalType": "string",
          "name": "description",
          "type": "string"
        }
      ],
      "name": "LogNewProvableQuery",
      "type": "event"
    },
    {
      "anonymous": false,
      "inputs": [
        {
          "indexed": false,
          "internalType": "string",
          "name": "price",
          "type": "string"
        }
      ],
      "name": "LogPriceUpdated",
      "type": "event"
    },
    {
      "anonymous": false,
      "inputs": [
        {
          "indexed": true,
          "internalType": "address",
          "name": "from",
          "type": "address"
        },
        {
          "indexed": true,
          "internalType": "address",
          "name": "to",
          "type": "address"
        },
        {
          "indexed": true,
          "internalType": "uint256",
          "name": "tokenId",
          "type": "uint256"
        }
      ],
      "name": "Transfer",
      "type": "event"
    },
    {
      "inputs": [],
      "name": "WBTCBTC",
      "outputs": [
        {
          "internalType": "uint256",
          "name": "",
          "type": "uint256"
        }
      ],
      "stateMutability": "view",
      "type": "function",
      "constant": true
    },
    {
      "inputs": [
        {
          "internalType": "address",
          "name": "to",
          "type": "address"
        },
        {
          "internalType": "uint256",
          "name": "tokenId",
          "type": "uint256"
        }
      ],
      "name": "approve",
      "outputs": [],
      "stateMutability": "nonpayable",
      "type": "function"
    },
    {
      "inputs": [
        {
          "internalType": "address",
          "name": "owner",
          "type": "address"
        }
      ],
      "name": "balanceOf",
      "outputs": [
        {
          "internalType": "uint256",
          "name": "",
          "type": "uint256"
        }
      ],
      "stateMutability": "view",
      "type": "function",
      "constant": true
    },
    {
      "inputs": [],
      "name": "baseURI",
      "outputs": [
        {
          "internalType": "string",
          "name": "",
          "type": "string"
        }
      ],
      "stateMutability": "view",
      "type": "function",
      "constant": true
    },
    {
      "inputs": [
        {
          "internalType": "uint256",
          "name": "tokenId",
          "type": "uint256"
        }
      ],
      "name": "getApproved",
      "outputs": [
        {
          "internalType": "address",
          "name": "",
          "type": "address"
        }
      ],
      "stateMutability": "view",
      "type": "function",
      "constant": true
    },
    {
      "inputs": [
        {
          "internalType": "address",
          "name": "owner",
          "type": "address"
        },
        {
          "internalType": "address",
          "name": "operator",
          "type": "address"
        }
      ],
      "name": "isApprovedForAll",
      "outputs": [
        {
          "internalType": "bool",
          "name": "",
          "type": "bool"
        }
      ],
      "stateMutability": "view",
      "type": "function",
      "constant": true
    },
    {
      "inputs": [],
      "name": "name",
      "outputs": [
        {
          "internalType": "string",
          "name": "",
          "type": "string"
        }
      ],
      "stateMutability": "view",
      "type": "function",
      "constant": true
    },
    {
      "inputs": [],
      "name": "owner",
      "outputs": [
        {
          "internalType": "address",
          "name": "",
          "type": "address"
        }
      ],
      "stateMutability": "view",
      "type": "function",
      "constant": true
    },
    {
      "inputs": [
        {
          "internalType": "uint256",
          "name": "tokenId",
          "type": "uint256"
        }
      ],
      "name": "ownerOf",
      "outputs": [
        {
          "internalType": "address",
          "name": "",
          "type": "address"
        }
      ],
      "stateMutability": "view",
      "type": "function",
      "constant": true
    },
    {
      "inputs": [
        {
          "internalType": "address",
          "name": "from",
          "type": "address"
        },
        {
          "internalType": "address",
          "name": "to",
          "type": "address"
        },
        {
          "internalType": "uint256",
          "name": "tokenId",
          "type": "uint256"
        }
      ],
      "name": "safeTransferFrom",
      "outputs": [],
      "stateMutability": "nonpayable",
      "type": "function"
    },
    {
      "inputs": [
        {
          "internalType": "address",
          "name": "from",
          "type": "address"
        },
        {
          "internalType": "address",
          "name": "to",
          "type": "address"
        },
        {
          "internalType": "uint256",
          "name": "tokenId",
          "type": "uint256"
        },
        {
          "internalType": "bytes",
          "name": "_data",
          "type": "bytes"
        }
      ],
      "name": "safeTransferFrom",
      "outputs": [],
      "stateMutability": "nonpayable",
      "type": "function"
    },
    {
      "inputs": [
        {
          "internalType": "address",
          "name": "operator",
          "type": "address"
        },
        {
          "internalType": "bool",
          "name": "approved",
          "type": "bool"
        }
      ],
      "name": "setApprovalForAll",
      "outputs": [],
      "stateMutability": "nonpayable",
      "type": "function"
    },
    {
      "inputs": [
        {
          "internalType": "bytes4",
          "name": "interfaceId",
          "type": "bytes4"
        }
      ],
      "name": "supportsInterface",
      "outputs": [
        {
          "internalType": "bool",
          "name": "",
          "type": "bool"
        }
      ],
      "stateMutability": "view",
      "type": "function",
      "constant": true
    },
    {
      "inputs": [],
      "name": "symbol",
      "outputs": [
        {
          "internalType": "string",
          "name": "",
          "type": "string"
        }
      ],
      "stateMutability": "view",
      "type": "function",
      "constant": true
    },
    {
      "inputs": [
        {
          "internalType": "uint256",
          "name": "index",
          "type": "uint256"
        }
      ],
      "name": "tokenByIndex",
      "outputs": [
        {
          "internalType": "uint256",
          "name": "",
          "type": "uint256"
        }
      ],
      "stateMutability": "view",
      "type": "function",
      "constant": true
    },
    {
      "inputs": [
        {
          "internalType": "address",
          "name": "owner",
          "type": "address"
        },
        {
          "internalType": "uint256",
          "name": "index",
          "type": "uint256"
        }
      ],
      "name": "tokenOfOwnerByIndex",
      "outputs": [
        {
          "internalType": "uint256",
          "name": "",
          "type": "uint256"
        }
      ],
      "stateMutability": "view",
      "type": "function",
      "constant": true
    },
    {
      "inputs": [
        {
          "internalType": "uint256",
          "name": "tokenId",
          "type": "uint256"
        }
      ],
      "name": "tokenURI",
      "outputs": [
        {
          "internalType": "string",
          "name": "",
          "type": "string"
        }
      ],
      "stateMutability": "view",
      "type": "function",
      "constant": true
    },
    {
      "inputs": [],
      "name": "totalSupply",
      "outputs": [
        {
          "internalType": "uint256",
          "name": "",
          "type": "uint256"
        }
      ],
      "stateMutability": "view",
      "type": "function",
      "constant": true
    },
    {
      "inputs": [
        {
          "internalType": "address",
          "name": "from",
          "type": "address"
        },
        {
          "internalType": "address",
          "name": "to",
          "type": "address"
        },
        {
          "internalType": "uint256",
          "name": "tokenId",
          "type": "uint256"
        }
      ],
      "name": "transferFrom",
      "outputs": [],
      "stateMutability": "nonpayable",
      "type": "function"
    },
    {
      "inputs": [
        {
          "internalType": "address",
          "name": "_to",
          "type": "address"
        },
        {
          "internalType": "uint256",
          "name": "_id",
          "type": "uint256"
        },
        {
          "internalType": "string",
          "name": "_uri",
          "type": "string"
        }
      ],
      "name": "mintNft",
      "outputs": [],
      "stateMutability": "nonpayable",
      "type": "function"
    },
    {
      "inputs": [
        {
          "internalType": "bytes32",
          "name": "myid",
          "type": "bytes32"
        },
        {
          "internalType": "string",
          "name": "result",
          "type": "string"
        }
      ],
      "name": "__callback",
      "outputs": [],
      "stateMutability": "nonpayable",
      "type": "function"
    },
    {
      "inputs": [
        {
          "internalType": "bytes32",
          "name": "_myid",
          "type": "bytes32"
        },
        {
          "internalType": "string",
          "name": "_result",
          "type": "string"
        },
        {
          "internalType": "bytes",
          "name": "_proof",
          "type": "bytes"
        }
      ],
      "name": "__callback",
      "outputs": [],
      "stateMutability": "nonpayable",
      "type": "function"
    },
    {
      "inputs": [],
      "name": "updatePrice",
      "outputs": [],
      "stateMutability": "payable",
      "type": "function",
      "payable": true
    }
  ],
  "bytecode": "0x60806040523480156200001157600080fd5b50604051620060ca380380620060ca833981810160405260408110156200003757600080fd5b81019080805160405193929190846401000000008211156200005857600080fd5b838201915060208201858111156200006f57600080fd5b82518660018202830111640100000000821117156200008d57600080fd5b8083526020830192505050908051906020019080838360005b83811015620000c3578082015181840152602081019050620000a6565b50505050905090810190601f168015620000f15780820380516001836020036101000a031916815260200191505b50604052602001805160405193929190846401000000008211156200011557600080fd5b838201915060208201858111156200012c57600080fd5b82518660018202830111640100000000821117156200014a57600080fd5b8083526020830192505050908051906020019080838360005b838110156200018057808201518184015260208101905062000163565b50505050905090810190601f168015620001ae5780820380516001836020036101000a031916815260200191505b506040525050508181620001cf6301ffc9a760e01b620002a460201b60201c565b8160069080519060200190620001e7929190620015d9565b50806007908051906020019062000200929190620015d9565b50620002196380ac58cd60e01b620002a460201b60201c565b62000231635b5e139f60e01b620002a460201b60201c565b6200024963780e9d6360e01b620002a460201b60201c565b505033601060006101000a81548173ffffffffffffffffffffffffffffffffffffffff021916908373ffffffffffffffffffffffffffffffffffffffff1602179055506200029c620003ad60201b60201c565b50506200167f565b63ffffffff60e01b817bffffffffffffffffffffffffffffffffffffffffffffffffffffffff1916141562000341576040517f08c379a000000000000000000000000000000000000000000000000000000000815260040180806020018281038252601c8152602001807f4552433136353a20696e76616c696420696e746572666163652069640000000081525060200191505060405180910390fd5b6001600080837bffffffffffffffffffffffffffffffffffffffffffffffffffffffff19167bffffffffffffffffffffffffffffffffffffffffffffffffffffffff1916815260200190815260200160002060006101000a81548160ff02191690831515021790555050565b47620003f46040518060400160405280600381526020017f55524c0000000000000000000000000000000000000000000000000000000000815250620004fd60201b60201c565b11156200044d577fc4dc360d0a9c0677a3379ae0a3d81e887f761e65fdf3d7e00859d1bcd3c4738960405180806020018281038252604b8152602001806200607f604b913960600191505060405180910390a1620004fb565b7fc4dc360d0a9c0677a3379ae0a3d81e887f761e65fdf3d7e00859d1bcd3c473896040518080602001828103825260358152602001806200604a6035913960400191505060405180910390a1620004f96040518060400160405280600381526020017f55524c00000000000000000000000000000000000000000000000000000000008152506040518060800160405280604181526020016200600960419139620008b060201b60201c565b505b565b60008073ffffffffffffffffffffffffffffffffffffffff16600b60009054906101000a900473ffffffffffffffffffffffffffffffffffffffff1673ffffffffffffffffffffffffffffffffffffffff1614806200058e575060006200058c600b60009054906101000a900473ffffffffffffffffffffffffffffffffffffffff1662000e2460201b60201c565b145b15620005a857620005a6600062000e2f60201b60201c565b505b600b60009054906101000a900473ffffffffffffffffffffffffffffffffffffffff1673ffffffffffffffffffffffffffffffffffffffff166338cc48316040518163ffffffff1660e01b8152600401602060405180830381600087803b1580156200061357600080fd5b505af115801562000628573d6000803e3d6000fd5b505050506040513d60208110156200063f57600080fd5b810190808051906020019092919050505073ffffffffffffffffffffffffffffffffffffffff16600a60009054906101000a900473ffffffffffffffffffffffffffffffffffffffff1673ffffffffffffffffffffffffffffffffffffffff16146200078e57600b60009054906101000a900473ffffffffffffffffffffffffffffffffffffffff1673ffffffffffffffffffffffffffffffffffffffff166338cc48316040518163ffffffff1660e01b8152600401602060405180830381600087803b1580156200071057600080fd5b505af115801562000725573d6000803e3d6000fd5b505050506040513d60208110156200073c57600080fd5b8101908080519060200190929190505050600a60006101000a81548173ffffffffffffffffffffffffffffffffffffffff021916908373ffffffffffffffffffffffffffffffffffffffff1602179055505b600a60009054906101000a900473ffffffffffffffffffffffffffffffffffffffff1673ffffffffffffffffffffffffffffffffffffffff1663524f3889836040518263ffffffff1660e01b81526004018080602001828103825283818151815260200191508051906020019080838360005b838110156200081e57808201518184015260208101905062000801565b50505050905090810190601f1680156200084c5780820380516001836020036101000a031916815260200191505b5092505050602060405180830381600087803b1580156200086c57600080fd5b505af115801562000881573d6000803e3d6000fd5b505050506040513d60208110156200089857600080fd5b81019080805190602001909291905050509050919050565b60008073ffffffffffffffffffffffffffffffffffffffff16600b60009054906101000a900473ffffffffffffffffffffffffffffffffffffffff1673ffffffffffffffffffffffffffffffffffffffff16148062000941575060006200093f600b60009054906101000a900473ffffffffffffffffffffffffffffffffffffffff1662000e2460201b60201c565b145b156200095b5762000959600062000e2f60201b60201c565b505b600b60009054906101000a900473ffffffffffffffffffffffffffffffffffffffff1673ffffffffffffffffffffffffffffffffffffffff166338cc48316040518163ffffffff1660e01b8152600401602060405180830381600087803b158015620009c657600080fd5b505af1158015620009db573d6000803e3d6000fd5b505050506040513d6020811015620009f257600080fd5b810190808051906020019092919050505073ffffffffffffffffffffffffffffffffffffffff16600a60009054906101000a900473ffffffffffffffffffffffffffffffffffffffff1673ffffffffffffffffffffffffffffffffffffffff161462000b4157600b60009054906101000a900473ffffffffffffffffffffffffffffffffffffffff1673ffffffffffffffffffffffffffffffffffffffff166338cc48316040518163ffffffff1660e01b8152600401602060405180830381600087803b15801562000ac357600080fd5b505af115801562000ad8573d6000803e3d6000fd5b505050506040513d602081101562000aef57600080fd5b8101908080519060200190929190505050600a60006101000a81548173ffffffffffffffffffffffffffffffffffffffff021916908373ffffffffffffffffffffffffffffffffffffffff1602179055505b6000600a60009054906101000a900473ffffffffffffffffffffffffffffffffffffffff1673ffffffffffffffffffffffffffffffffffffffff1663524f3889856040518263ffffffff1660e01b81526004018080602001828103825283818151815260200191508051906020019080838360005b8381101562000bd357808201518184015260208101905062000bb6565b50505050905090810190601f16801562000c015780820380516001836020036101000a031916815260200191505b5092505050602060405180830381600087803b15801562000c2157600080fd5b505af115801562000c36573d6000803e3d6000fd5b505050506040513d602081101562000c4d57600080fd5b8101908080519060200190929190505050905062030d403a02670de0b6b3a76400000181111562000c85576000801b91505062000e1e565b600a60009054906101000a900473ffffffffffffffffffffffffffffffffffffffff1673ffffffffffffffffffffffffffffffffffffffff1663adf59f9982600087876040518563ffffffff1660e01b8152600401808481526020018060200180602001838103835285818151815260200191508051906020019080838360005b8381101562000d2357808201518184015260208101905062000d06565b50505050905090810190601f16801562000d515780820380516001836020036101000a031916815260200191505b50838103825284818151815260200191508051906020019080838360005b8381101562000d8c57808201518184015260208101905062000d6f565b50505050905090810190601f16801562000dba5780820380516001836020036101000a031916815260200191505b50955050505050506020604051808303818588803b15801562000ddc57600080fd5b505af115801562000df1573d6000803e3d6000fd5b50505050506040513d602081101562000e0957600080fd5b81019080805190602001909291905050509150505b92915050565b6000813b9050919050565b600062000e4162000e4860201b60201c565b9050919050565b60008062000e70731d3b2638a7cc9f2cb3d298a3da7a90b67e5506ed62000e2460201b60201c565b111562000f1c57731d3b2638a7cc9f2cb3d298a3da7a90b67e5506ed600b60006101000a81548173ffffffffffffffffffffffffffffffffffffffff021916908373ffffffffffffffffffffffffffffffffffffffff16021790555062000f126040518060400160405280600b81526020017f6574685f6d61696e6e6574000000000000000000000000000000000000000000815250620015bd60201b60201c565b60019050620015ba565b600062000f4373c03a2615d5efaf5f49f60b7bb6583eaec212fdf162000e2460201b60201c565b111562000fef5773c03a2615d5efaf5f49f60b7bb6583eaec212fdf1600b60006101000a81548173ffffffffffffffffffffffffffffffffffffffff021916908373ffffffffffffffffffffffffffffffffffffffff16021790555062000fe56040518060400160405280600c81526020017f6574685f726f707374656e330000000000000000000000000000000000000000815250620015bd60201b60201c565b60019050620015ba565b60006200101673b7a07bcf2ba2f2703b24c0691b5278999c59ac7e62000e2460201b60201c565b1115620010c25773b7a07bcf2ba2f2703b24c0691b5278999c59ac7e600b60006101000a81548173ffffffffffffffffffffffffffffffffffffffff021916908373ffffffffffffffffffffffffffffffffffffffff160217905550620010b86040518060400160405280600981526020017f6574685f6b6f76616e0000000000000000000000000000000000000000000000815250620015bd60201b60201c565b60019050620015ba565b6000620010e973146500cfd35b22e4a392fe0adc06de1a1368ed4862000e2460201b60201c565b1115620011955773146500cfd35b22e4a392fe0adc06de1a1368ed48600b60006101000a81548173ffffffffffffffffffffffffffffffffffffffff021916908373ffffffffffffffffffffffffffffffffffffffff1602179055506200118b6040518060400160405280600b81526020017f6574685f72696e6b656279000000000000000000000000000000000000000000815250620015bd60201b60201c565b60019050620015ba565b6000620011bc73a2998efd205fb9d4b4963afb70778d6354ad3a4162000e2460201b60201c565b1115620012685773a2998efd205fb9d4b4963afb70778d6354ad3a41600b60006101000a81548173ffffffffffffffffffffffffffffffffffffffff021916908373ffffffffffffffffffffffffffffffffffffffff1602179055506200125e6040518060400160405280600a81526020017f6574685f676f65726c6900000000000000000000000000000000000000000000815250620015bd60201b60201c565b60019050620015ba565b60006200128f7390a0f94702c9630036fb9846b52bf31a1c991a8462000e2460201b60201c565b11156200133b577390a0f94702c9630036fb9846b52bf31a1c991a84600b60006101000a81548173ffffffffffffffffffffffffffffffffffffffff021916908373ffffffffffffffffffffffffffffffffffffffff160217905550620013316040518060400160405280600b81526020017f6273635f6d61696e6e6574000000000000000000000000000000000000000000815250620015bd60201b60201c565b60019050620015ba565b60006200136273816ec2af1b56183f82f8c05759e99fec3c3de60962000e2460201b60201c565b11156200140e5773816ec2af1b56183f82f8c05759e99fec3c3de609600b60006101000a81548173ffffffffffffffffffffffffffffffffffffffff021916908373ffffffffffffffffffffffffffffffffffffffff160217905550620014046040518060400160405280600f81526020017f706f6c79676f6e5f6d61696e6e65740000000000000000000000000000000000815250620015bd60201b60201c565b60019050620015ba565b600062001435736f485c8bf6fc43ea212e93bbf8ce046c7f1cb47562000e2460201b60201c565b11156200149b57736f485c8bf6fc43ea212e93bbf8ce046c7f1cb475600b60006101000a81548173ffffffffffffffffffffffffffffffffffffffff021916908373ffffffffffffffffffffffffffffffffffffffff16021790555060019050620015ba565b6000620014c27320e12a1f859b3feae5fb2a0a32c18f5a65555bbf62000e2460201b60201c565b111562001528577320e12a1f859b3feae5fb2a0a32c18f5a65555bbf600b60006101000a81548173ffffffffffffffffffffffffffffffffffffffff021916908373ffffffffffffffffffffffffffffffffffffffff16021790555060019050620015ba565b60006200154f7351efaf4c8b3c9afbd5ab9f4bbc82784ab6ef8faa62000e2460201b60201c565b1115620015b5577351efaf4c8b3c9afbd5ab9f4bbc82784ab6ef8faa600b60006101000a81548173ffffffffffffffffffffffffffffffffffffffff021916908373ffffffffffffffffffffffffffffffffffffffff16021790555060019050620015ba565b600090505b90565b80600c9080519060200190620015d5929190620015d9565b5050565b828054600181600116156101000203166002900490600052602060002090601f016020900481019282601f106200161c57805160ff19168380011785556200164d565b828001600101855582156200164d579182015b828111156200164c5782518255916020019190600101906200162f565b5b5090506200165c919062001660565b5090565b5b808211156200167b57600081600090555060010162001661565b5090565b61497a806200168f6000396000f3fe6080604052600436106101405760003560e01c80636352211e116100b65780639a6a009b1161006f5780639a6a009b14610954578063a22cb46514610a46578063b88d4fde14610aa3578063c87b56dd14610bb5578063e985e9c514610c69578063fcc8859a14610cf057610140565b80636352211e1461071f578063673a7e28146107845780636c0360eb1461078e57806370a082311461081e5780638da5cb5b1461088357806395d89b41146108c457610140565b806323b872dd1161010857806323b872dd1461033057806327dc297e146103ab5780632f745c591461047d57806338bbfa50146104ec57806342842e0e146106555780634f6ccce7146106d057610140565b806301ffc9a71461014557806306fdde03146101b5578063081812fc14610245578063095ea7b3146102aa57806318160ddd14610305575b600080fd5b34801561015157600080fd5b5061019d6004803603602081101561016857600080fd5b8101908080357bffffffffffffffffffffffffffffffffffffffffffffffffffffffff19169060200190929190505050610d1b565b60405180821515815260200191505060405180910390f35b3480156101c157600080fd5b506101ca610d82565b6040518080602001828103825283818151815260200191508051906020019080838360005b8381101561020a5780820151818401526020810190506101ef565b50505050905090810190601f1680156102375780820380516001836020036101000a031916815260200191505b509250505060405180910390f35b34801561025157600080fd5b5061027e6004803603602081101561026857600080fd5b8101908080359060200190929190505050610e24565b604051808273ffffffffffffffffffffffffffffffffffffffff16815260200191505060405180910390f35b3480156102b657600080fd5b50610303600480360360408110156102cd57600080fd5b81019080803573ffffffffffffffffffffffffffffffffffffffff16906020019092919080359060200190929190505050610ebf565b005b34801561031157600080fd5b5061031a611003565b6040518082815260200191505060405180910390f35b34801561033c57600080fd5b506103a96004803603606081101561035357600080fd5b81019080803573ffffffffffffffffffffffffffffffffffffffff169060200190929190803573ffffffffffffffffffffffffffffffffffffffff16906020019092919080359060200190929190505050611014565b005b3480156103b757600080fd5b5061047b600480360360408110156103ce57600080fd5b8101908080359060200190929190803590602001906401000000008111156103f557600080fd5b82018360208201111561040757600080fd5b8035906020019184600183028401116401000000008311171561042957600080fd5b91908080601f016020809104026020016040519081016040528093929190818152602001838380828437600081840152601f19601f82011690508083019250505050505050919291929050505061108a565b005b34801561048957600080fd5b506104d6600480360360408110156104a057600080fd5b81019080803573ffffffffffffffffffffffffffffffffffffffff169060200190929190803590602001909291905050506111c6565b6040518082815260200191505060405180910390f35b3480156104f857600080fd5b506106536004803603606081101561050f57600080fd5b81019080803590602001909291908035906020019064010000000081111561053657600080fd5b82018360208201111561054857600080fd5b8035906020019184600183028401116401000000008311171561056a57600080fd5b91908080601f016020809104026020016040519081016040528093929190818152602001838380828437600081840152601f19601f820116905080830192505050505050509192919290803590602001906401000000008111156105cd57600080fd5b8201836020820111156105df57600080fd5b8035906020019184600183028401116401000000008311171561060157600080fd5b91908080601f016020809104026020016040519081016040528093929190818152602001838380828437600081840152601f19601f820116905080830192505050505050509192919290505050611221565b005b34801561066157600080fd5b506106ce6004803603606081101561067857600080fd5b81019080803573ffffffffffffffffffffffffffffffffffffffff169060200190929190803573ffffffffffffffffffffffffffffffffffffffff16906020019092919080359060200190929190505050611244565b005b3480156106dc57600080fd5b50610709600480360360208110156106f357600080fd5b8101908080359060200190929190505050611264565b6040518082815260200191505060405180910390f35b34801561072b57600080fd5b506107586004803603602081101561074257600080fd5b8101908080359060200190929190505050611287565b604051808273ffffffffffffffffffffffffffffffffffffffff16815260200191505060405180910390f35b61078c6112be565b005b34801561079a57600080fd5b506107a36113f9565b6040518080602001828103825283818151815260200191508051906020019080838360005b838110156107e35780820151818401526020810190506107c8565b50505050905090810190601f1680156108105780820380516001836020036101000a031916815260200191505b509250505060405180910390f35b34801561082a57600080fd5b5061086d6004803603602081101561084157600080fd5b81019080803573ffffffffffffffffffffffffffffffffffffffff16906020019092919050505061149b565b6040518082815260200191505060405180910390f35b34801561088f57600080fd5b50610898611570565b604051808273ffffffffffffffffffffffffffffffffffffffff16815260200191505060405180910390f35b3480156108d057600080fd5b506108d9611596565b6040518080602001828103825283818151815260200191508051906020019080838360005b838110156109195780820151818401526020810190506108fe565b50505050905090810190601f1680156109465780820380516001836020036101000a031916815260200191505b509250505060405180910390f35b34801561096057600080fd5b50610a446004803603606081101561097757600080fd5b81019080803573ffffffffffffffffffffffffffffffffffffffff16906020019092919080359060200190929190803590602001906401000000008111156109be57600080fd5b8201836020820111156109d057600080fd5b803590602001918460018302840111640100000000831117156109f257600080fd5b91908080601f016020809104026020016040519081016040528093929190818152602001838380828437600081840152601f19601f820116905080830192505050505050509192919290505050611638565b005b348015610a5257600080fd5b50610aa160048036036040811015610a6957600080fd5b81019080803573ffffffffffffffffffffffffffffffffffffffff169060200190929190803515159060200190929190505050611815565b005b348015610aaf57600080fd5b50610bb360048036036080811015610ac657600080fd5b81019080803573ffffffffffffffffffffffffffffffffffffffff169060200190929190803573ffffffffffffffffffffffffffffffffffffffff1690602001909291908035906020019092919080359060200190640100000000811115610b2d57600080fd5b820183602082011115610b3f57600080fd5b80359060200191846001830284011164010000000083111715610b6157600080fd5b91908080601f016020809104026020016040519081016040528093929190818152602001838380828437600081840152601f19601f8201169050808301925050505050505091929192905050506119cb565b005b348015610bc157600080fd5b50610bee60048036036020811015610bd857600080fd5b8101908080359060200190929190505050611a43565b6040518080602001828103825283818151815260200191508051906020019080838360005b83811015610c2e578082015181840152602081019050610c13565b50505050905090810190601f168015610c5b5780820380516001836020036101000a031916815260200191505b509250505060405180910390f35b348015610c7557600080fd5b50610cd860048036036040811015610c8c57600080fd5b81019080803573ffffffffffffffffffffffffffffffffffffffff169060200190929190803573ffffffffffffffffffffffffffffffffffffffff169060200190929190505050611d14565b60405180821515815260200191505060405180910390f35b348015610cfc57600080fd5b50610d05611da8565b6040518082815260200191505060405180910390f35b6000806000837bffffffffffffffffffffffffffffffffffffffffffffffffffffffff19167bffffffffffffffffffffffffffffffffffffffffffffffffffffffff1916815260200190815260200160002060009054906101000a900460ff169050919050565b606060068054600181600116156101000203166002900480601f016020809104026020016040519081016040528092919081815260200182805460018160011615610100020316600290048015610e1a5780601f10610def57610100808354040283529160200191610e1a565b820191906000526020600020905b815481529060010190602001808311610dfd57829003601f168201915b5050505050905090565b6000610e2f82611dae565b610e84576040517f08c379a000000000000000000000000000000000000000000000000000000000815260040180806020018281038252602c81526020018061481f602c913960400191505060405180910390fd5b6004600083815260200190815260200160002060009054906101000a900473ffffffffffffffffffffffffffffffffffffffff169050919050565b6000610eca82611287565b90508073ffffffffffffffffffffffffffffffffffffffff168373ffffffffffffffffffffffffffffffffffffffff161415610f51576040517f08c379a00000000000000000000000000000000000000000000000000000000081526004018080602001828103825260218152602001806148cf6021913960400191505060405180910390fd5b8073ffffffffffffffffffffffffffffffffffffffff16610f70611dcb565b73ffffffffffffffffffffffffffffffffffffffff161480610f9f5750610f9e81610f99611dcb565b611d14565b5b610ff4576040517f08c379a00000000000000000000000000000000000000000000000000000000081526004018080602001828103825260388152602001806147726038913960400191505060405180910390fd5b610ffe8383611dd3565b505050565b600061100f6002611e8c565b905090565b61102561101f611dcb565b82611ea1565b61107a576040517f08c379a00000000000000000000000000000000000000000000000000000000081526004018080602001828103825260318152602001806149146031913960400191505060405180910390fd5b611085838383611f95565b505050565b6110926121d8565b73ffffffffffffffffffffffffffffffffffffffff163373ffffffffffffffffffffffffffffffffffffffff1614611115576040517f08c379a00000000000000000000000000000000000000000000000000000000081526004018080602001828103825260248152602001806148f06024913960400191505060405180910390fd5b6111208160056124fa565b600f819055507f71f1a5645e51a2da828ffcf79cc17da88eb25e1bca8b9dced23210847a4769c1816040518080602001828103825283818151815260200191508051906020019080838360005b8381101561118857808201518184015260208101905061116d565b50505050905090810190601f1680156111b55780820380516001836020036101000a031916815260200191505b509250505060405180910390a15050565b600061121982600160008673ffffffffffffffffffffffffffffffffffffffff1673ffffffffffffffffffffffffffffffffffffffff16815260200190815260200160002061260390919063ffffffff16565b905092915050565b6000801b600d60008060001b815260200190815260200160002081905550505050565b61125f838383604051806020016040528060008152506119cb565b505050565b60008061127b83600261261d90919063ffffffff16565b50905080915050919050565b60006112b7826040518060600160405280602981526020016147d46029913960026126499092919063ffffffff16565b9050919050565b476112fd6040518060400160405280600381526020017f55524c0000000000000000000000000000000000000000000000000000000000815250612668565b1115611353577fc4dc360d0a9c0677a3379ae0a3d81e887f761e65fdf3d7e00859d1bcd3c4738960405180806020018281038252604b815260200180614687604b913960600191505060405180910390a16113f7565b7fc4dc360d0a9c0677a3379ae0a3d81e887f761e65fdf3d7e00859d1bcd3c473896040518080602001828103825260358152602001806146526035913960400191505060405180910390a16113f56040518060400160405280600381526020017f55524c00000000000000000000000000000000000000000000000000000000008152506040518060800160405280604181526020016145bd604191396129fc565b505b565b606060098054600181600116156101000203166002900480601f0160208091040260200160405190810160405280929190818152602001828054600181600116156101000203166002900480156114915780601f1061146657610100808354040283529160200191611491565b820191906000526020600020905b81548152906001019060200180831161147457829003601f168201915b5050505050905090565b60008073ffffffffffffffffffffffffffffffffffffffff168273ffffffffffffffffffffffffffffffffffffffff161415611522576040517f08c379a000000000000000000000000000000000000000000000000000000000815260040180806020018281038252602a8152602001806147aa602a913960400191505060405180910390fd5b611569600160008473ffffffffffffffffffffffffffffffffffffffff1673ffffffffffffffffffffffffffffffffffffffff168152602001908152602001600020612f46565b9050919050565b601060009054906101000a900473ffffffffffffffffffffffffffffffffffffffff1681565b606060078054600181600116156101000203166002900480601f01602080910402602001604051908101604052809291908181526020018280546001816001161561010002031660029004801561162e5780601f106116035761010080835404028352916020019161162e565b820191906000526020600020905b81548152906001019060200180831161161157829003601f168201915b5050505050905090565b601060009054906101000a900473ffffffffffffffffffffffffffffffffffffffff1673ffffffffffffffffffffffffffffffffffffffff163373ffffffffffffffffffffffffffffffffffffffff16146116fb576040517f08c379a00000000000000000000000000000000000000000000000000000000081526004018080602001828103825260098152602001807f4e6f74206f776e6572000000000000000000000000000000000000000000000081525060200191505060405180910390fd5b620186a0600f541015611759576040517f08c379a000000000000000000000000000000000000000000000000000000000815260040180806020018281038252602a8152602001806146d2602a913960400191505060405180910390fd5b600073ffffffffffffffffffffffffffffffffffffffff168373ffffffffffffffffffffffffffffffffffffffff1614156117fc576040517f08c379a00000000000000000000000000000000000000000000000000000000081526004018080602001828103825260118152602001807f4e6f742076616c6964206164647265737300000000000000000000000000000081525060200191505060405180910390fd5b6118068383612f5b565b6118108282612f79565b505050565b61181d611dcb565b73ffffffffffffffffffffffffffffffffffffffff168273ffffffffffffffffffffffffffffffffffffffff1614156118be576040517f08c379a00000000000000000000000000000000000000000000000000000000081526004018080602001828103825260198152602001807f4552433732313a20617070726f766520746f2063616c6c65720000000000000081525060200191505060405180910390fd5b80600560006118cb611dcb565b73ffffffffffffffffffffffffffffffffffffffff1673ffffffffffffffffffffffffffffffffffffffff16815260200190815260200160002060008473ffffffffffffffffffffffffffffffffffffffff1673ffffffffffffffffffffffffffffffffffffffff16815260200190815260200160002060006101000a81548160ff0219169083151502179055508173ffffffffffffffffffffffffffffffffffffffff16611978611dcb565b73ffffffffffffffffffffffffffffffffffffffff167f17307eab39ab6107e8899845ad3d59bd9653f200f220920489ca2b5937696c318360405180821515815260200191505060405180910390a35050565b6119dc6119d6611dcb565b83611ea1565b611a31576040517f08c379a00000000000000000000000000000000000000000000000000000000081526004018080602001828103825260318152602001806149146031913960400191505060405180910390fd5b611a3d84848484613003565b50505050565b6060611a4e82611dae565b611aa3576040517f08c379a000000000000000000000000000000000000000000000000000000000815260040180806020018281038252602f8152602001806148a0602f913960400191505060405180910390fd5b6060600860008481526020019081526020016000208054600181600116156101000203166002900480601f016020809104026020016040519081016040528092919081815260200182805460018160011615610100020316600290048015611b4c5780601f10611b2157610100808354040283529160200191611b4c565b820191906000526020600020905b815481529060010190602001808311611b2f57829003601f168201915b505050505090506060611b5d6113f9565b9050600081511415611b73578192505050611d0f565b600082511115611c445780826040516020018083805190602001908083835b60208310611bb55780518252602082019150602081019050602083039250611b92565b6001836020036101000a03801982511681845116808217855250505050505090500182805190602001908083835b60208310611c065780518252602082019150602081019050602083039250611be3565b6001836020036101000a0380198251168184511680821785525050505050509050019250505060405160208183030381529060405292505050611d0f565b80611c4e85613075565b6040516020018083805190602001908083835b60208310611c845780518252602082019150602081019050602083039250611c61565b6001836020036101000a03801982511681845116808217855250505050505090500182805190602001908083835b60208310611cd55780518252602082019150602081019050602083039250611cb2565b6001836020036101000a03801982511681845116808217855250505050505090500192505050604051602081830303815290604052925050505b919050565b6000600560008473ffffffffffffffffffffffffffffffffffffffff1673ffffffffffffffffffffffffffffffffffffffff16815260200190815260200160002060008373ffffffffffffffffffffffffffffffffffffffff1673ffffffffffffffffffffffffffffffffffffffff16815260200190815260200160002060009054906101000a900460ff16905092915050565b600f5481565b6000611dc48260026131bc90919063ffffffff16565b9050919050565b600033905090565b816004600083815260200190815260200160002060006101000a81548173ffffffffffffffffffffffffffffffffffffffff021916908373ffffffffffffffffffffffffffffffffffffffff160217905550808273ffffffffffffffffffffffffffffffffffffffff16611e4683611287565b73ffffffffffffffffffffffffffffffffffffffff167f8c5be1e5ebec7d5bd14f71427d1e84f3dd0314c0f7b2291e5b200ac8c7c3b92560405160405180910390a45050565b6000611e9a826000016131d6565b9050919050565b6000611eac82611dae565b611f01576040517f08c379a000000000000000000000000000000000000000000000000000000000815260040180806020018281038252602c815260200180614746602c913960400191505060405180910390fd5b6000611f0c83611287565b90508073ffffffffffffffffffffffffffffffffffffffff168473ffffffffffffffffffffffffffffffffffffffff161480611f7b57508373ffffffffffffffffffffffffffffffffffffffff16611f6384610e24565b73ffffffffffffffffffffffffffffffffffffffff16145b80611f8c5750611f8b8185611d14565b5b91505092915050565b8273ffffffffffffffffffffffffffffffffffffffff16611fb582611287565b73ffffffffffffffffffffffffffffffffffffffff1614612021576040517f08c379a00000000000000000000000000000000000000000000000000000000081526004018080602001828103825260298152602001806148776029913960400191505060405180910390fd5b600073ffffffffffffffffffffffffffffffffffffffff168273ffffffffffffffffffffffffffffffffffffffff1614156120a7576040517f08c379a00000000000000000000000000000000000000000000000000000000081526004018080602001828103825260248152602001806146fc6024913960400191505060405180910390fd5b6120b28383836131e7565b6120bd600082611dd3565b61210e81600160008673ffffffffffffffffffffffffffffffffffffffff1673ffffffffffffffffffffffffffffffffffffffff1681526020019081526020016000206131ec90919063ffffffff16565b5061216081600160008573ffffffffffffffffffffffffffffffffffffffff1673ffffffffffffffffffffffffffffffffffffffff16815260200190815260200160002061320690919063ffffffff16565b50612177818360026132209092919063ffffffff16565b50808273ffffffffffffffffffffffffffffffffffffffff168473ffffffffffffffffffffffffffffffffffffffff167fddf252ad1be2c89b69c2b068fc378daa952ba7f163c4a11628f55a4df523b3ef60405160405180910390a4505050565b60008073ffffffffffffffffffffffffffffffffffffffff16600b60009054906101000a900473ffffffffffffffffffffffffffffffffffffffff1673ffffffffffffffffffffffffffffffffffffffff1614806122605750600061225e600b60009054906101000a900473ffffffffffffffffffffffffffffffffffffffff16613255565b145b156122715761226f6000613260565b505b600b60009054906101000a900473ffffffffffffffffffffffffffffffffffffffff1673ffffffffffffffffffffffffffffffffffffffff166338cc48316040518163ffffffff1660e01b8152600401602060405180830381600087803b1580156122db57600080fd5b505af11580156122ef573d6000803e3d6000fd5b505050506040513d602081101561230557600080fd5b810190808051906020019092919050505073ffffffffffffffffffffffffffffffffffffffff16600a60009054906101000a900473ffffffffffffffffffffffffffffffffffffffff1673ffffffffffffffffffffffffffffffffffffffff161461245057600b60009054906101000a900473ffffffffffffffffffffffffffffffffffffffff1673ffffffffffffffffffffffffffffffffffffffff166338cc48316040518163ffffffff1660e01b8152600401602060405180830381600087803b1580156123d457600080fd5b505af11580156123e8573d6000803e3d6000fd5b505050506040513d60208110156123fe57600080fd5b8101908080519060200190929190505050600a60006101000a81548173ffffffffffffffffffffffffffffffffffffffff021916908373ffffffffffffffffffffffffffffffffffffffff1602179055505b600a60009054906101000a900473ffffffffffffffffffffffffffffffffffffffff1673ffffffffffffffffffffffffffffffffffffffff1663c281d19e6040518163ffffffff1660e01b8152600401602060405180830381600087803b1580156124ba57600080fd5b505af11580156124ce573d6000803e3d6000fd5b505050506040513d60208110156124e457600080fd5b8101908080519060200190929190505050905090565b6000606083905060008060005b83518110156125e457603084828151811061251e57fe5b602001015160f81c60f81b60f81c60ff161015801561255a5750603984828151811061254657fe5b602001015160f81c60f81b60f81c60ff1611155b156125ac57811561257d576000861415612573576125e4565b8580600190039650505b600a83029250603084828151811061259157fe5b602001015160f81c60f81b60f81c60ff1603830192506125d7565b602e8482815181106125ba57fe5b602001015160f81c60f81b60f81c60ff1614156125d657600191505b5b8080600101915050612507565b5060008511156125f75784600a0a820291505b81935050505092915050565b60006126128360000183613271565b60001c905092915050565b60008060008061263086600001866132f4565b915091508160001c8160001c9350935050509250929050565b600061265c846000018460001b8461338d565b60001c90509392505050565b60008073ffffffffffffffffffffffffffffffffffffffff16600b60009054906101000a900473ffffffffffffffffffffffffffffffffffffffff1673ffffffffffffffffffffffffffffffffffffffff1614806126f0575060006126ee600b60009054906101000a900473ffffffffffffffffffffffffffffffffffffffff16613255565b145b15612701576126ff6000613260565b505b600b60009054906101000a900473ffffffffffffffffffffffffffffffffffffffff1673ffffffffffffffffffffffffffffffffffffffff166338cc48316040518163ffffffff1660e01b8152600401602060405180830381600087803b15801561276b57600080fd5b505af115801561277f573d6000803e3d6000fd5b505050506040513d602081101561279557600080fd5b810190808051906020019092919050505073ffffffffffffffffffffffffffffffffffffffff16600a60009054906101000a900473ffffffffffffffffffffffffffffffffffffffff1673ffffffffffffffffffffffffffffffffffffffff16146128e057600b60009054906101000a900473ffffffffffffffffffffffffffffffffffffffff1673ffffffffffffffffffffffffffffffffffffffff166338cc48316040518163ffffffff1660e01b8152600401602060405180830381600087803b15801561286457600080fd5b505af1158015612878573d6000803e3d6000fd5b505050506040513d602081101561288e57600080fd5b8101908080519060200190929190505050600a60006101000a81548173ffffffffffffffffffffffffffffffffffffffff021916908373ffffffffffffffffffffffffffffffffffffffff1602179055505b600a60009054906101000a900473ffffffffffffffffffffffffffffffffffffffff1673ffffffffffffffffffffffffffffffffffffffff1663524f3889836040518263ffffffff1660e01b81526004018080602001828103825283818151815260200191508051906020019080838360005b8381101561296e578082015181840152602081019050612953565b50505050905090810190601f16801561299b5780820380516001836020036101000a031916815260200191505b5092505050602060405180830381600087803b1580156129ba57600080fd5b505af11580156129ce573d6000803e3d6000fd5b505050506040513d60208110156129e457600080fd5b81019080805190602001909291905050509050919050565b60008073ffffffffffffffffffffffffffffffffffffffff16600b60009054906101000a900473ffffffffffffffffffffffffffffffffffffffff1673ffffffffffffffffffffffffffffffffffffffff161480612a8457506000612a82600b60009054906101000a900473ffffffffffffffffffffffffffffffffffffffff16613255565b145b15612a9557612a936000613260565b505b600b60009054906101000a900473ffffffffffffffffffffffffffffffffffffffff1673ffffffffffffffffffffffffffffffffffffffff166338cc48316040518163ffffffff1660e01b8152600401602060405180830381600087803b158015612aff57600080fd5b505af1158015612b13573d6000803e3d6000fd5b505050506040513d6020811015612b2957600080fd5b810190808051906020019092919050505073ffffffffffffffffffffffffffffffffffffffff16600a60009054906101000a900473ffffffffffffffffffffffffffffffffffffffff1673ffffffffffffffffffffffffffffffffffffffff1614612c7457600b60009054906101000a900473ffffffffffffffffffffffffffffffffffffffff1673ffffffffffffffffffffffffffffffffffffffff166338cc48316040518163ffffffff1660e01b8152600401602060405180830381600087803b158015612bf857600080fd5b505af1158015612c0c573d6000803e3d6000fd5b505050506040513d6020811015612c2257600080fd5b8101908080519060200190929190505050600a60006101000a81548173ffffffffffffffffffffffffffffffffffffffff021916908373ffffffffffffffffffffffffffffffffffffffff1602179055505b6000600a60009054906101000a900473ffffffffffffffffffffffffffffffffffffffff1673ffffffffffffffffffffffffffffffffffffffff1663524f3889856040518263ffffffff1660e01b81526004018080602001828103825283818151815260200191508051906020019080838360005b83811015612d04578082015181840152602081019050612ce9565b50505050905090810190601f168015612d315780820380516001836020036101000a031916815260200191505b5092505050602060405180830381600087803b158015612d5057600080fd5b505af1158015612d64573d6000803e3d6000fd5b505050506040513d6020811015612d7a57600080fd5b8101908080519060200190929190505050905062030d403a02670de0b6b3a764000001811115612db0576000801b915050612f40565b600a60009054906101000a900473ffffffffffffffffffffffffffffffffffffffff1673ffffffffffffffffffffffffffffffffffffffff1663adf59f9982600087876040518563ffffffff1660e01b8152600401808481526020018060200180602001838103835285818151815260200191508051906020019080838360005b83811015612e4c578082015181840152602081019050612e31565b50505050905090810190601f168015612e795780820380516001836020036101000a031916815260200191505b50838103825284818151815260200191508051906020019080838360005b83811015612eb2578082015181840152602081019050612e97565b50505050905090810190601f168015612edf5780820380516001836020036101000a031916815260200191505b50955050505050506020604051808303818588803b158015612f0057600080fd5b505af1158015612f14573d6000803e3d6000fd5b50505050506040513d6020811015612f2b57600080fd5b81019080805190602001909291905050509150505b92915050565b6000612f5482600001613483565b9050919050565b612f75828260405180602001604052806000815250613494565b5050565b612f8282611dae565b612fd7576040517f08c379a000000000000000000000000000000000000000000000000000000000815260040180806020018281038252602c81526020018061484b602c913960400191505060405180910390fd5b80600860008481526020019081526020016000209080519060200190612ffe92919061451f565b505050565b61300e848484611f95565b61301a84848484613505565b61306f576040517f08c379a00000000000000000000000000000000000000000000000000000000081526004018080602001828103825260328152602001806146206032913960400191505060405180910390fd5b50505050565b606060008214156130bd576040518060400160405280600181526020017f300000000000000000000000000000000000000000000000000000000000000081525090506131b7565b600082905060005b600082146130e7578080600101915050600a82816130df57fe5b0491506130c5565b60608167ffffffffffffffff8111801561310057600080fd5b506040519080825280601f01601f1916602001820160405280156131335781602001600182028036833780820191505090505b50905060006001830390508593505b600084146131af57600a848161315457fe5b0660300160f81b8282806001900393508151811061316e57fe5b60200101907effffffffffffffffffffffffffffffffffffffffffffffffffffffffffffff1916908160001a905350600a84816131a757fe5b049350613142565b819450505050505b919050565b60006131ce836000018360001b61371e565b905092915050565b600081600001805490509050919050565b505050565b60006131fe836000018360001b613741565b905092915050565b6000613218836000018360001b613829565b905092915050565b600061324c846000018460001b8473ffffffffffffffffffffffffffffffffffffffff1660001b613899565b90509392505050565b6000813b9050919050565b600061326a613975565b9050919050565b6000818360000180549050116132d2576040517f08c379a00000000000000000000000000000000000000000000000000000000081526004018080602001828103825260228152602001806145fe6022913960400191505060405180910390fd5b8260000182815481106132e157fe5b9060005260206000200154905092915050565b60008082846000018054905011613356576040517f08c379a00000000000000000000000000000000000000000000000000000000081526004018080602001828103825260228152602001806147fd6022913960400191505060405180910390fd5b600084600001848154811061336757fe5b906000526020600020906002020190508060000154816001015492509250509250929050565b60008084600101600085815260200190815260200160002054905060008114158390613454576040517f08c379a00000000000000000000000000000000000000000000000000000000081526004018080602001828103825283818151815260200191508051906020019080838360005b838110156134195780820151818401526020810190506133fe565b50505050905090810190601f1680156134465780820380516001836020036101000a031916815260200191505b509250505060405180910390fd5b5084600001600182038154811061346757fe5b9060005260206000209060020201600101549150509392505050565b600081600001805490509050919050565b61349e838361404e565b6134ab6000848484613505565b613500576040517f08c379a00000000000000000000000000000000000000000000000000000000081526004018080602001828103825260328152602001806146206032913960400191505060405180910390fd5b505050565b60006135268473ffffffffffffffffffffffffffffffffffffffff16614242565b6135335760019050613716565b606061369d63150b7a0260e01b613548611dcb565b888787604051602401808573ffffffffffffffffffffffffffffffffffffffff1681526020018473ffffffffffffffffffffffffffffffffffffffff16815260200183815260200180602001828103825283818151815260200191508051906020019080838360005b838110156135cc5780820151818401526020810190506135b1565b50505050905090810190601f1680156135f95780820380516001836020036101000a031916815260200191505b5095505050505050604051602081830303815290604052907bffffffffffffffffffffffffffffffffffffffffffffffffffffffff19166020820180517bffffffffffffffffffffffffffffffffffffffffffffffffffffffff8381831617835250505050604051806060016040528060328152602001614620603291398773ffffffffffffffffffffffffffffffffffffffff166142559092919063ffffffff16565b905060008180602001905160208110156136b657600080fd5b8101908080519060200190929190505050905063150b7a0260e01b7bffffffffffffffffffffffffffffffffffffffffffffffffffffffff1916817bffffffffffffffffffffffffffffffffffffffffffffffffffffffff191614925050505b949350505050565b600080836001016000848152602001908152602001600020541415905092915050565b6000808360010160008481526020019081526020016000205490506000811461381d576000600182039050600060018660000180549050039050600086600001828154811061378c57fe5b90600052602060002001549050808760000184815481106137a957fe5b90600052602060002001819055506001830187600101600083815260200190815260200160002081905550866000018054806137e157fe5b60019003818190600052602060002001600090559055866001016000878152602001908152602001600020600090556001945050505050613823565b60009150505b92915050565b6000613835838361426d565b61388e578260000182908060018154018082558091505060019003906000526020600020016000909190919091505582600001805490508360010160008481526020019081526020016000208190555060019050613893565b600090505b92915050565b60008084600101600085815260200190815260200160002054905060008114156139405784600001604051806040016040528086815260200185815250908060018154018082558091505060019003906000526020600020906002020160009091909190915060008201518160000155602082015181600101555050846000018054905085600101600086815260200190815260200160002081905550600191505061396e565b8285600001600183038154811061395357fe5b90600052602060002090600202016001018190555060009150505b9392505050565b600080613995731d3b2638a7cc9f2cb3d298a3da7a90b67e5506ed613255565b1115613a3757731d3b2638a7cc9f2cb3d298a3da7a90b67e5506ed600b60006101000a81548173ffffffffffffffffffffffffffffffffffffffff021916908373ffffffffffffffffffffffffffffffffffffffff160217905550613a2e6040518060400160405280600b81526020017f6574685f6d61696e6e6574000000000000000000000000000000000000000000815250614290565b6001905061404b565b6000613a5673c03a2615d5efaf5f49f60b7bb6583eaec212fdf1613255565b1115613af85773c03a2615d5efaf5f49f60b7bb6583eaec212fdf1600b60006101000a81548173ffffffffffffffffffffffffffffffffffffffff021916908373ffffffffffffffffffffffffffffffffffffffff160217905550613aef6040518060400160405280600c81526020017f6574685f726f707374656e330000000000000000000000000000000000000000815250614290565b6001905061404b565b6000613b1773b7a07bcf2ba2f2703b24c0691b5278999c59ac7e613255565b1115613bb95773b7a07bcf2ba2f2703b24c0691b5278999c59ac7e600b60006101000a81548173ffffffffffffffffffffffffffffffffffffffff021916908373ffffffffffffffffffffffffffffffffffffffff160217905550613bb06040518060400160405280600981526020017f6574685f6b6f76616e0000000000000000000000000000000000000000000000815250614290565b6001905061404b565b6000613bd873146500cfd35b22e4a392fe0adc06de1a1368ed48613255565b1115613c7a5773146500cfd35b22e4a392fe0adc06de1a1368ed48600b60006101000a81548173ffffffffffffffffffffffffffffffffffffffff021916908373ffffffffffffffffffffffffffffffffffffffff160217905550613c716040518060400160405280600b81526020017f6574685f72696e6b656279000000000000000000000000000000000000000000815250614290565b6001905061404b565b6000613c9973a2998efd205fb9d4b4963afb70778d6354ad3a41613255565b1115613d3b5773a2998efd205fb9d4b4963afb70778d6354ad3a41600b60006101000a81548173ffffffffffffffffffffffffffffffffffffffff021916908373ffffffffffffffffffffffffffffffffffffffff160217905550613d326040518060400160405280600a81526020017f6574685f676f65726c6900000000000000000000000000000000000000000000815250614290565b6001905061404b565b6000613d5a7390a0f94702c9630036fb9846b52bf31a1c991a84613255565b1115613dfc577390a0f94702c9630036fb9846b52bf31a1c991a84600b60006101000a81548173ffffffffffffffffffffffffffffffffffffffff021916908373ffffffffffffffffffffffffffffffffffffffff160217905550613df36040518060400160405280600b81526020017f6273635f6d61696e6e6574000000000000000000000000000000000000000000815250614290565b6001905061404b565b6000613e1b73816ec2af1b56183f82f8c05759e99fec3c3de609613255565b1115613ebd5773816ec2af1b56183f82f8c05759e99fec3c3de609600b60006101000a81548173ffffffffffffffffffffffffffffffffffffffff021916908373ffffffffffffffffffffffffffffffffffffffff160217905550613eb46040518060400160405280600f81526020017f706f6c79676f6e5f6d61696e6e65740000000000000000000000000000000000815250614290565b6001905061404b565b6000613edc736f485c8bf6fc43ea212e93bbf8ce046c7f1cb475613255565b1115613f4057736f485c8bf6fc43ea212e93bbf8ce046c7f1cb475600b60006101000a81548173ffffffffffffffffffffffffffffffffffffffff021916908373ffffffffffffffffffffffffffffffffffffffff1602179055506001905061404b565b6000613f5f7320e12a1f859b3feae5fb2a0a32c18f5a65555bbf613255565b1115613fc3577320e12a1f859b3feae5fb2a0a32c18f5a65555bbf600b60006101000a81548173ffffffffffffffffffffffffffffffffffffffff021916908373ffffffffffffffffffffffffffffffffffffffff1602179055506001905061404b565b6000613fe27351efaf4c8b3c9afbd5ab9f4bbc82784ab6ef8faa613255565b1115614046577351efaf4c8b3c9afbd5ab9f4bbc82784ab6ef8faa600b60006101000a81548173ffffffffffffffffffffffffffffffffffffffff021916908373ffffffffffffffffffffffffffffffffffffffff1602179055506001905061404b565b600090505b90565b600073ffffffffffffffffffffffffffffffffffffffff168273ffffffffffffffffffffffffffffffffffffffff1614156140f1576040517f08c379a00000000000000000000000000000000000000000000000000000000081526004018080602001828103825260208152602001807f4552433732313a206d696e7420746f20746865207a65726f206164647265737381525060200191505060405180910390fd5b6140fa81611dae565b1561416d576040517f08c379a000000000000000000000000000000000000000000000000000000000815260040180806020018281038252601c8152602001807f4552433732313a20746f6b656e20616c7265616479206d696e7465640000000081525060200191505060405180910390fd5b614179600083836131e7565b6141ca81600160008573ffffffffffffffffffffffffffffffffffffffff1673ffffffffffffffffffffffffffffffffffffffff16815260200190815260200160002061320690919063ffffffff16565b506141e1818360026132209092919063ffffffff16565b50808273ffffffffffffffffffffffffffffffffffffffff16600073ffffffffffffffffffffffffffffffffffffffff167fddf252ad1be2c89b69c2b068fc378daa952ba7f163c4a11628f55a4df523b3ef60405160405180910390a45050565b600080823b905060008111915050919050565b606061426484846000856142aa565b90509392505050565b600080836001016000848152602001908152602001600020541415905092915050565b80600c90805190602001906142a692919061451f565b5050565b606082471015614305576040517f08c379a00000000000000000000000000000000000000000000000000000000081526004018080602001828103825260268152602001806147206026913960400191505060405180910390fd5b61430e85614242565b614380576040517f08c379a000000000000000000000000000000000000000000000000000000000815260040180806020018281038252601d8152602001807f416464726573733a2063616c6c20746f206e6f6e2d636f6e747261637400000081525060200191505060405180910390fd5b600060608673ffffffffffffffffffffffffffffffffffffffff1685876040518082805190602001908083835b602083106143d057805182526020820191506020810190506020830392506143ad565b6001836020036101000a03801982511681845116808217855250505050505090500191505060006040518083038185875af1925050503d8060008114614432576040519150601f19603f3d011682016040523d82523d6000602084013e614437565b606091505b5091509150614447828286614453565b92505050949350505050565b6060831561446357829050614518565b6000835111156144765782518084602001fd5b816040517f08c379a00000000000000000000000000000000000000000000000000000000081526004018080602001828103825283818151815260200191508051906020019080838360005b838110156144dd5780820151818401526020810190506144c2565b50505050905090810190601f16801561450a5780820380516001836020036101000a031916815260200191505b509250505060405180910390fd5b9392505050565b828054600181600116156101000203166002900490600052602060002090601f016020900481019282601f1061456057805160ff191683800117855561458e565b8280016001018555821561458e579182015b8281111561458d578251825591602001919060010190614572565b5b50905061459b919061459f565b5090565b5b808211156145b85760008160009055506001016145a0565b509056fe6a736f6e2868747470733a2f2f6170692e70726f2e636f696e626173652e636f6d2f70726f64756374732f574254432d4254432f7469636b6572292e7072696365456e756d657261626c655365743a20696e646578206f7574206f6620626f756e64734552433732313a207472616e7366657220746f206e6f6e20455243373231526563656976657220696d706c656d656e74657250726f7661626c65207175657279207761732073656e742c207374616e64696e6720627920666f722074686520616e737765722e2e50726f7661626c6520717565727920776173204e4f542073656e742c20706c656173652061646420736f6d652045544820746f20636f76657220666f72207468652071756572792066656557425443207072696365206973206c6f77202d20596f752061726520756e61626c6520746f206d696e744552433732313a207472616e7366657220746f20746865207a65726f2061646472657373416464726573733a20696e73756666696369656e742062616c616e636520666f722063616c6c4552433732313a206f70657261746f7220717565727920666f72206e6f6e6578697374656e7420746f6b656e4552433732313a20617070726f76652063616c6c6572206973206e6f74206f776e6572206e6f7220617070726f76656420666f7220616c6c4552433732313a2062616c616e636520717565727920666f7220746865207a65726f20616464726573734552433732313a206f776e657220717565727920666f72206e6f6e6578697374656e7420746f6b656e456e756d657261626c654d61703a20696e646578206f7574206f6620626f756e64734552433732313a20617070726f76656420717565727920666f72206e6f6e6578697374656e7420746f6b656e4552433732314d657461646174613a2055524920736574206f66206e6f6e6578697374656e7420746f6b656e4552433732313a207472616e73666572206f6620746f6b656e2074686174206973206e6f74206f776e4552433732314d657461646174613a2055524920717565727920666f72206e6f6e6578697374656e7420746f6b656e4552433732313a20617070726f76616c20746f2063757272656e74206f776e65725468652073656e646572206973206e6f742050726f7661626c652773207365727665722e4552433732313a207472616e736665722063616c6c6572206973206e6f74206f776e6572206e6f7220617070726f766564a2646970667358221220fcb5de9544b08024390dd032e5b7576c66c182c84b94bf62d0f5b9dc308f640664736f6c634300060c00336a736f6e2868747470733a2f2f6170692e70726f2e636f696e626173652e636f6d2f70726f64756374732f574254432d4254432f7469636b6572292e707269636550726f7661626c65207175657279207761732073656e742c207374616e64696e6720627920666f722074686520616e737765722e2e50726f7661626c6520717565727920776173204e4f542073656e742c20706c656173652061646420736f6d652045544820746f20636f76657220666f722074686520717565727920666565",
  "immutableReferences": {},
  "source": "pragma solidity ^0.6.0;\r\nimport \"./provableAPI_0.6.sol\";\r\nimport \"@openzeppelin/contracts/token/ERC721/ERC721.sol\";\r\n\r\ncontract priceBasedNft is ERC721, usingProvable {\r\n\r\n    uint256 public WBTCBTC;\r\n    address public owner;\r\n\r\n    constructor(string memory _name,string memory _symbol) public\r\n    ERC721(_name,_symbol){\r\n    owner = msg.sender;\r\n    updatePrice();\r\n    }\r\n\r\n    modifier onlyOwner() {\r\n        require(msg.sender == owner, \"Not owner\");\r\n    _;\r\n    }\r\n    modifier onlyProvable() {\r\n    require(msg.sender == provable_cbAddress(), \"The sender is not Provable's server.\");\r\n    _;\r\n    }\r\n    function mintNft(address _to,uint256 _id,string memory _uri) external onlyOwner\r\n    {\r\n       //updatePrice();\r\n       require(WBTCBTC >= 100000, \"WBTC price is low - You are unable to mint\");\r\n       require(_to != address(0), \"Not valid address\");\r\n       _safeMint(_to,_id);\r\n       _setTokenURI(_id,_uri);\r\n\r\n    }\r\n     \r\n\r\n   event LogPriceUpdated(string price);\r\n   event LogNewProvableQuery(string description);\r\n\r\n   function __callback(bytes32 myid, string memory result) virtual override public onlyProvable {\r\n      WBTCBTC = parseInt(result,5);\r\n      //updatePrice();\r\n      emit LogPriceUpdated(result);\r\n   }\r\n\r\n   function updatePrice() payable public {\r\n       if (provable_getPrice(\"URL\") > address(this).balance) {\r\n           emit LogNewProvableQuery(\"Provable query was NOT sent, please add some ETH to cover for the query fee\");\r\n       } else {\r\n           emit LogNewProvableQuery(\"Provable query was sent, standing by for the answer..\");\r\n           provable_query(\"URL\", \"json(https://api.pro.coinbase.com/products/WBTC-BTC/ticker).price\");\r\n       }\r\n   }\r\n}",
  "sourcePath": "D:\\Arun\\A1\\NFT1\\contracts\\priceBasedNft.sol",
  "compiler": {
    "name": "solc",
    "version": "0.6.12+commit.27d51765.Emscripten.clang"
  },
  "schemaVersion": "3.4.4",
  "updatedAt": "2022-09-01T08:57:21.743Z",
  "networkType": "ethereum",
  "devdoc": {
    "kind": "dev",
    "methods": {
      "approve(address,uint256)": {
        "details": "See {IERC721-approve}."
      },
      "balanceOf(address)": {
        "details": "See {IERC721-balanceOf}."
      },
      "baseURI()": {
        "details": "Returns the base URI set via {_setBaseURI}. This will be automatically added as a prefix in {tokenURI} to each token's URI, or to the token ID if no specific URI is set for that token ID."
      },
      "getApproved(uint256)": {
        "details": "See {IERC721-getApproved}."
      },
      "isApprovedForAll(address,address)": {
        "details": "See {IERC721-isApprovedForAll}."
      },
      "name()": {
        "details": "See {IERC721Metadata-name}."
      },
      "ownerOf(uint256)": {
        "details": "See {IERC721-ownerOf}."
      },
      "safeTransferFrom(address,address,uint256)": {
        "details": "See {IERC721-safeTransferFrom}."
      },
      "safeTransferFrom(address,address,uint256,bytes)": {
        "details": "See {IERC721-safeTransferFrom}."
      },
      "setApprovalForAll(address,bool)": {
        "details": "See {IERC721-setApprovalForAll}."
      },
      "supportsInterface(bytes4)": {
        "details": "See {IERC165-supportsInterface}. Time complexity O(1), guaranteed to always use less than 30 000 gas."
      },
      "symbol()": {
        "details": "See {IERC721Metadata-symbol}."
      },
      "tokenByIndex(uint256)": {
        "details": "See {IERC721Enumerable-tokenByIndex}."
      },
      "tokenOfOwnerByIndex(address,uint256)": {
        "details": "See {IERC721Enumerable-tokenOfOwnerByIndex}."
      },
      "tokenURI(uint256)": {
        "details": "See {IERC721Metadata-tokenURI}."
      },
      "totalSupply()": {
        "details": "See {IERC721Enumerable-totalSupply}."
      },
      "transferFrom(address,address,uint256)": {
        "details": "See {IERC721-transferFrom}."
      }
    },
    "version": 1
  },
  "userdoc": {
    "kind": "user",
    "methods": {},
    "version": 1
  }
}